:020000040000FA
:060000000A128A1110280B
:10000800FE00030E83120313DF000A08E0007F08D6
:10001800E1000A128A15E32E0A128A1113288313A3
:10002800BC30FD000930FE00F330FF00B33084001F
:100038000A128A11F0270A128A110A128A15F12166
:100048000A128A11E8000A128A15F2210A128A1184
:10005800E90083160313BC01BD01BE01BF01C00145
:10006800C10183120313E201E301E401E501E601A2
:10007800E70183010A128A11862B831203133D08B4
:100088008039C7003D08C2004207CD00BC1F4D287B
:100098004E284F284D144D08031953285428632817
:1000A8004D0A031D5828592861280030BD0000302A
:1000B800BC000030BB000030BA00BC176B28003011
:1000C800BD000030BC000030BB000030BA00410861
:1000D8008039FF007F08C7064108C2004207CC00EC
:1000E800C01F7728782879284C144C0803197D28D4
:1000F8007E288D284C0A031D822883288B280030EF
:10010800C1000030C0000030BF000030BE00C01782
:1001180095280030C1000030C0000030BF0000301A
:10012800BE004C08031999289A289F284D08031DDA
:100138009E289F28A8280030BD000030BC00003051
:10014800BB000030BA00852B3A08F00040080A12BC
:100158008A1512220A128A11710883120313D30016
:100168007008D2005208C200C301C401C501450885
:10017800CB004408CA004308C9004208C800530815
:10018800C200C301C401C5014508D1004408D0001C
:100198004308CF004208CE003B08F0003F080A128F
:1001A8008A1512220A128A11710883120313D300C6
:1001B8007008D2005208C200C301C401C501420838
:1001C800C807430803110318013E0319EC28C9079F
:1001D800440803110318013E0319F328CA07450808
:1001E80003110318013E0319FA28CB075308C2006C
:1001F800C301C401C5014208CE074308031103180F
:10020800013E03190829CF07440803110318013ECA
:1002180003190F29D007450803110318013E0319D4
:100228001629D1073C08F0003E080A128A15122246
:100238000A128A11710883120313D3007008D200BE
:100248005208C200C301C401C5014208C8074308D7
:1002580003110318013E03193229C9074408031181
:100268000318013E03193929CA0745080311031861
:10027800013E03194029CB075308C200C301C4013A
:10028800C5014208CE07430803110318013E0319AC
:100298004E29CF07440803110318013E03195529B5
:1002A800D007450803110318013E03195C29D1073B
:1002B8000830C2000310C80DC90DCA0DCB0DC20B02
:1002C8005E293B08F0003E080A128A1512220A121B
:1002D8008A11710883120313D3007008D2005208E0
:1002E800C2005308C300C401C5014208C807430837
:1002F80003110318013E03198229C9074408031191
:100308000318013E03198929CA0745080311031870
:10031800013E03199029CB073A08F0003F080A125A
:100328008A1512220A128A11710883120313D30044
:100338007008D2005208C2005308C300C401C501A6
:100348004208C807430803110318013E0319AD29E1
:10035800C907440803110318013E0319B429CA0741
:10036800450803110318013E0319BB29CB070830C0
:10037800C2000310C80DC90DCA0DCB0DC20BBD2993
:100388003A08F0003E080A128A1512220A128A1147
:10039800710883120313D3007008D2005208C200F8
:1003A8005308C300C401C5014208C8074308031124
:1003B8000318013E0319E129C9074408031103186A
:1003C800013E0319E829CA07450803110318013E2D
:1003D8000319EF29CB073B08F00040080A128A15D9
:1003E80012220A128A11710883120313D3007008AB
:1003F800D2005208C2005308C300C401C501420814
:10040800CE07430803110318013E03190C2ACF072E
:10041800440803110318013E0319132AD00745089D
:1004280003110318013E03191A2AD1073C08F000EA
:100438003F080A128A1512220A128A1171088312B9
:100448000313D3007008D2005208C2005308C30037
:10045800C401C5014208CE07430803110318013E31
:100468000319372ACF07440803110318013E03195B
:100478003E2AD007450803110318013E0319452AEF
:10048800D1073C08F00040080A128A1512220A1205
:100498008A11710883120313D3007008D20052081E
:1004A800C2005308C300C401C50108300310C20DBF
:1004B800C30DC40DC50DFF3E031D5A2A4208CE07C1
:1004C800430803110318013E03196B2ACF07440898
:1004D80003110318013E0319722AD00745080311B6
:1004E8000318013E0319792AD1074808C2004908B0
:1004F800C3004A08C4004B08C50018300310C50CD7
:10050800C40CC30CC20CFF3E031D822A4208CE074E
:10051800430803110318013E0319932ACF0744081F
:1005280003110318013E03199A2AD007450803113D
:100538000318013E0319A12AD1070830C20003108D
:10054800C80DC90DCA0DCB0DC20BA32A4D084C0707
:10055800C200C301C30D4208823ED20043080318FB
:10056800013EFF3ED300D52A0130C2000310CE0D54
:10057800CF0DD00DD10DC20BBA2ACB1FC42AC52A64
:10058800C62A4E140130C2000310C80DC90DCA0D89
:10059800CB0DC20BC82AFF30D2070318D30AFF308D
:1005A800D307D01FD82AD92AB82ACC01CB1FDD2AD5
:1005B800DE2AFA2AFF304805C200FF304905C30089
:1005C800FF304A05C4007F304B05C5004508440488
:1005D800430442040319F12AF22AF52ACC01CC0A71
:1005E800FA2A4E1CF82AF92AFA2AF22A4C08031980
:1005F800FE2AFF2A302B0130CE07003003180130C5
:10060800CF07003003180130D0070030031801303D
:10061800D107511C102B112B302B4E08C2004F084C
:10062800C3005008C4005108C5000130C600450D7C
:10063800C50CC40CC30CC20CC60B1B2B4508D1003F
:100648004408D0004308CF004208CE000130D2074A
:100658000318D30A0030D3075308803AFF008030CC
:100668007F02031D392BFF305202031C3C2B3D2B0C
:10067800482B7F3083120313D1008030D000003024
:10068800CF000030CE00792B831203135308803A31
:10069800FF0080307F02031D532B013052020318E4
:1006A800562B572B632B003083120313D1000030D5
:1006B800D0000030CF000030CE00C701792B831264
:1006C80003135208CD00FF30CE05FF30CF057F3031
:1006D800D0050030D1054D1C722B732B742BD0170D
:1006E8004D08C2000310420CD1004708FF007F08E4
:1006F800D1045108BD005008BC004F08BB004E088B
:10070800BA0008008B178B168B15873083160313D6
:1007180081000A128A15FC210A128A11FF308316F9
:1007280003138600880187018312031307108817B3
:1007380087170130831603138500A6308400330819
:1007480083138000840A34088000840A35088000F6
:10075800840A36088000840A370880000A128A153D
:1007680055250A128A1108300A128A15BD220A1262
:100778008A1100300A128A15BD220A128A110D3018
:100788000A128A1539220A128A110C300A128A159D
:10079800BD220A128A1100300A128A15BD220A12D5
:1007A8008A1101300A128A1539220A128A110B306D
:1007B80083160313B0002630AF005D30AE00AE0BD9
:1007C800E32BAF0BE32BB00BE32B00300A128A1597
:1007D800BD220A128A1101300A128A15BD220A1294
:1007E8008A1108300A128A15BD220A128A110130AC
:1007F8000A128A15BD220A128A1119300A128A159C
:1008080039220A128A11831603133C083D04031D7A
:100818000E2C0F2C082D0130BC000030BD000A3012
:10082800A8000030A9008312031369088316031374
:10083800AB0083120313680883160313AA000A1275
:100848008A1562220A128A11831603132908C10025
:100858002808C000612C3F30C0000030C100862C41
:100868000630C0000030C100862C5B30C00000306C
:10087800C100862C4F30C0000030C100862C663085
:10088800C0000030C100862C6D30C0000030C100AF
:10089800862C7D30C0000030C100862C0730C00097
:1008A8000030C100862C7F30C0000030C100862C8B
:1008B8006F30C0000030C100862C4108003A03198F
:1008C800662C862C4008003A03192F2C013A03198C
:1008D800342C033A0319392C013A03193E2C073AF0
:1008E8000319432C013A0319482C033A03194D2CD8
:1008F800013A0319522C0F3A0319572C013A0319DC
:100908005C2C862C0A30A8000030A9000A30A00010
:100918000030A10083120313690883160313A30090
:1009280083120313680883160313A2000A128A1598
:100938001A230A128A11831603132108AB00200810
:10094800AA000A128A1562220A128A118316031350
:100958002908BF002808BE00E32C3F30BE00003045
:10096800BF00082D0630BE000030BF00082D5B30E8
:10097800BE000030BF00082D4F30BE000030BF0061
:10098800082D6630BE000030BF00082D6D30BE0057
:100998000030BF00082D7D30BE000030BF00082D9C
:1009A8000730BE000030BF00082D7F30BE00003089
:1009B800BF00082D6F30BE000030BF00082D3F0873
:1009C800003A0319E82C082D3E08003A0319B12C07
:1009D800013A0319B62C033A0319BB2C013A03193F
:1009E800C02C073A0319C52C013A0319CA2C033A3B
:1009F8000319CF2C013A0319D42C0F3A0319D92C17
:100A0800013A0319DE2C082D4008831203138800CD
:100A180087138817023083160313B0000430AF0021
:100A2800B930AE00AE0B162DAF0B162DB00B162D30
:100A38001D2D831603133E088312031388008813A1
:100A48008717823083160313AF00DD30AE00AE0B7C
:100A58002B2DAF0B2B2D0A3083160313A800003063
:100A6800A9000A30A0000030A10083120313630814
:100A780083160313A3008312031362088316031358
:100A8800A2000A128A151A230A128A11831603135E
:100A98002108AB002008AA000A128A1562220A124D
:100AA8008A11831603132808303EBA000A30A800BA
:100AB8000030A90083120313630883160313AB00E5
:100AC80083120313620883160313AA000A128A15F5
:100AD80062220A128A11831603132808303EBB00CB
:100AE80008300A128A15BD220A128A110A300A121F
:100AF8008A15BD220A128A11831603133A080A12AC
:100B08008A15FB230A128A1108300A128A15BD2297
:100B18000A128A110B300A128A15BD220A128A118A
:100B2800831603133B080A128A15FB230A128A113B
:100B380008300A128A15BD220A128A110C300A12CC
:100B48008A15BD220A128A1125300A128A15FB233A
:100B58000A128A118316031338033904031DB52DAD
:100B6800B62DD42D0830B1003115B1143114310827
:100B7800AE0004300310AE0CFF3E031DBE2D2E0840
:100B88000F390A128A15BD220A128A118316031315
:100B980031080F390A128A15BD220A128A11072C48
:100BA8000830B2003208AE0004300310AE0CFF3E2D
:100BB800031DD92D2E080F390A128A15BD220A12D3
:100BC8008A118316031332080F390A128A15BD22B7
:100BD8000A128A11072C0A128A1110288312031389
:100BE80027088039B1002708A8002807B800A61FE1
:100BF800FE2DFF2D002E381438080319042E052E5B
:100C0800152E380A031D092E0A2E122E0030A700B1
:100C18000030A6000030A5000030A400A617A701E8
:100C28001D2E0030A7000030A6000030A5000030BF
:100C3800A40023088039FF007F08B1062308A80014
:100C48002807B900A21F292E2A2E2B2E391439085D
:100C580003192F2E302E402E390A031D342E352E1F
:100C68003D2E0030A3000030A2000030A10000306B
:100C7800A000A217A301482E0030A3000030A20054
:100C88000030A1000030A000230822042104200421
:100C9800031D4F2E502E692E0030A7000030A600ED
:100CA8000030A5000030A4008030A6047F30A704DF
:100CB8003108FF007F08A7042708A3002608A20020
:100CC8002508A1002408A000C02F3808031D6D2E98
:100CD8006E2E772E0030A3000030A2000030A10055
:100CE8000030A000C02F3808A800A9012908AB00CF
:100CF80039082802AA00031CAB032A087F3EB20069
:100D08002B080318013E003EB3002708B000260850
:100D1800AF002508AE002408AD000030A700003061
:100D2800A6000030A5000030A4000030B700003055
:100D3800B6000030B5000030B400B901ED2E390816
:100D48000319A72EA82EC82E0130A8000310AD0D38
:100D5800AE0DAF0DB00DA80BAA2E0130A8000310E0
:100D6800A40DA50DA60DA70DA80BB32EB71FBD2E5C
:100D7800BE2EBF2E24140130A8000310B40DB50DEB
:100D8800B60DB70DA80BC12E23083002031DD62EB1
:100D980022082F02031DD62E21082E02031DD62E4F
:100DA80020082D02031CD92EDA2EE92E3717200829
:100DB800AD022108031C210FAE022208031C220FDA
:100DC800AF022308031C230FB0020130FF007F0885
:100DD800B9071A303902031CF22EF32EA32E30085D
:100DE8002F042E042D040319FA2EFB2E1A2F341467
:100DF8001A2F0130A8000310A40DA50DA60DA70DEC
:100E0800A80BFF2EB71F092F0A2F0B2F2414013010
:100E1800A8000310B40DB50DB60DB70DA80B0D2F16
:100E2800FF30B2070318B30AFF30B307A61F1D2F00
:100E38001E2FFD2EB901B71F222F232F3F2FFF3062
:100E48003405A800FF303505A900FF303605AA0093
:100E58007F303705AB002B082A042904280403191E
:100E6800362F372F3A2FB901B90A3F2F241C3D2FAF
:100E78003E2F3F2F372F39080319432F442F752F43
:100E88000130A407003003180130A507003003180B
:100E98000130A607003003180130A707271C552F7B
:100EA800562F752F2408A8002508A9002608AA008F
:100EB8002708AB000130AC002B0DAB0CAA0CA90C19
:100EC800A80CAC0B602F2B08A7002A08A60029083D
:100ED800A5002808A4000130B2070318B30A00309F
:100EE800B3073308803AFF0080307F02031D7E2F4E
:100EF800FF303202031C812F822F902FFF30831284
:100F08000313B2000030B3000030A7000030A60081
:100F18000030A5000030A400831203133308803A80
:100F2800FF0080307F02031D9B2F0130320203181F
:100F38009E2F9F2FAC2F83120313B201B3010030F1
:100F4800A7000030A6000030A5000030A400B101C1
:100F5800831203133208B800381CB32FB42FB62FEE
:100F6800A617BA2F7F30FF007F08A6053808A8000B
:100F78000310280CA7005C2E0800F4000130FF00C5
:100F88007F08831203139F057408F20002300310D0
:100F9800F20DFF3E031DCB2F0310720DFF007F08DB
:100FA8009F040630F3003030F200F20BD92FF30B18
:100FB800D92F0000831203131F151F19E42FE52FE3
:100FC800E12F1E08F100831603131E08F000080025
:100FD8007E088A007F0882000A128A11EC270A120A
:100FE8008A118000840A04087D0603190034FF0A68
:060FF8000319FE0AF02FB0
:1010000008308A000408840A820700344D346F34A3
:101010006934733474347534723465342E342E3438
:101020002E340034433461346C34633475346C349E
:101030006134743469346E34673400344D346F3441
:101040006934733474347534723465343A3400342A
:1013E2005534003407340034113423343534013495
:1013F200003430343034831603139E0183120313F6
:101402009E019F171F179F121F129F111F111F145A
:10141200831603139F171F139F111F119F101F1075
:101422000800F800F401F5017008F200F3017208F7
:10143200F6007308F700781C1F2A202A262A76084D
:10144200F4070318F50A7708F50701300310F60DC3
:10145200F70DFF3E031D272A0310F80C7808031D21
:10146200332A342A1C2A7508F1007408F000080097
:1014720083160313A800A601A701542A26082807E9
:1014820084000A128A1500200A128A150A128A1585
:10149200FB230A128A15013083160313A6070318C9
:1014A200A70A0030A7072608280784000A128A150F
:1014B20000200A128A15003A031D602A612A3F2A77
:1014C200080083160313AD01AB1F682A692A702A2C
:1014D200AA09AB09AA0A0319AB0AAD01AD0AA91FF1
:1014E200732A742A792AA809A909A80A0319A90A38
:1014F2002808290403197E2A7F2AAE2AAC01AC0AE5
:101502008D2A01300310A80DA90DFF3E031D832A69
:101512000130FF007F08AC07A91F902A912A822A76
:1015220029082B02031D972A28082A02031C9A2A3B
:101532009B2AA12A2808AA022908031CAB03AB0292
:1015420001300310A90CA80CFF3E031DA22A013092
:10155200AC02031DAD2AAE2A912A2D080319B22A24
:10156200B32AB82AAA09AB09AA0A0319AB0A2B089B
:10157200A9002A08A800080083160313A500013059
:10158200A30035080739013EC82A0310A30DFF3E08
:10159200031DC62A2308FF3AFF003308840083177D
:1015A200341C83137F08800525080A128A151B261E
:1015B2000A128A15013083160313A300350CA40006
:1015C200A40C240C0739013EE82A0310A30DFF3EA8
:1015D200031DE62A2308FF00330884008317341C06
:1015E20083137F0880040B3083160313A400613039
:1015F200A300A30BFA2AA40BFA2AFF2A01308316AE
:101602000313A300350CA400A40C240C0739013EDB
:101612000C2B0310A30DFF3E031D0A2B2308FF3AD8
:10162200FF00330884008317341C83137F0880056E
:10163200080083160313A501A11F202B212B282BA1
:10164200A009A109A00A0319A10AA501A50AA31FBD
:101652002B2B2C2B352BA209A309A20A0319A30AAF
:101662000130FF007F08A506A601A701200821047A
:1016720003193C2B3D2B742BA401A40A4B2B0130E4
:101682000310A00DA10DFF3E031D412B0130FF00F1
:101692007F08A407A11F4E2B4F2B402B01300310B4
:1016A200A60DA70DFF3E031D502B21082302031D8B
:1016B2005C2B20082202031C5F2B602B672B200867
:1016C200A2022108031CA303A30226140130031063
:1016D200A10CA00CFF3E031D682B0130A402031DC8
:1016E200732B742B4F2B25080319782B792B7E2B08
:1016F200A609A709A60A0319A70A2708A10026080E
:10170200A0000800031083120313560D570DDD00CD
:101712005D08031D8D2B8E2B972B0030D7000030D8
:10172200D6000030D5000030D400FA2B5408D8007F
:101732005508D9005608DA005708DB001F3003109D
:10174200DB0CDA0CD90CD80CFF3E031DA02B580879
:10175200DC00D617FF30D405FF30D505FF30D605A3
:101762000030D7059630DD02DD1FB82BB92BD32B05
:101772005D08803A973E0318BF2BC02BC12B8E2BDE
:1017820001300310D70CD60CD50CD40CFF3E031D30
:10179200C22B0130FF007F08DD07031DD12BD22BA6
:1017A200C12BEA2B20305D02031CD82BD92BE52B51
:1017B2008E2B0130D8000310D40DD50DD60DD70DC8
:1017C200D80BDC2B0130DD025D08031DE92BEA2B6F
:1017D200DA2B5C080319EE2BEF2BFA2BD409D5096F
:1017E200D609D709D40A0319D50A0319D60A031947
:1017F200D70A080083160313A5000130A300350899
:101802000739013E062C0310A30DFF3E031D042CD5
:101812002308FF00330884008317341C83137F08D6
:1018220080042508A30004300310A30CFF3E031D0F
:10183200152C23080F390A128A151B260A128A153B
:10184200013083160313A300350CA400A40C240C4E
:101852000739013E2E2C0310A30DFF3E031D2C2C35
:101862002308FF00330884008317341C83137F0886
:101872008004193083160313A300A30B3E2C412CC2
:10188200013083160313A300350CA400A40C240C0E
:101892000739013E4E2C0310A30DFF3E031D4C2CB5
:1018A2002308FF3AFF00330884008317341C831394
:1018B2007F08800525080F390A128A151B260A128D
:1018C2008A15013083160313A300350CA400A40C5F
:1018D200240C0739013E6F2C0310A30DFF3E031D9C
:1018E2006D2C2308FF00330884008317341C8313F4
:1018F2007F088004193083160313A300A30B7F2CE7
:10190200822C013083160313A300350CA400A40C0F
:10191200240C0739013E8F2C0310A30DFF3E031D3B
:101922008D2C2308FF3AFF00330884008317341CF0
:1019320083137F0880050800F80078080319A22C99
:10194200A32CB72CF31FA62CA72CB72C7009FA00D6
:101952007109FB007209FC007309FD00FA0A031900
:10196200FB0A0319FC0A0319FD0ABF2C7308FD00C8
:101972007208FC007108FB007008FA007308720418
:1019820071047004031DC62CC72CD02C0030F30048
:101992000030F2000030F1000030F000542D96309B
:1019A200F900E02C0130FF007F08F9070130031035
:1019B200FD0CFC0CFB0CFA0CFF3E031DD82CFE3078
:1019C2007D05031DE52CE62CD32C022D0130FF00F2
:1019D2007F08F9070130FA07003003180130FB07CE
:1019E200003003180130FC07003003180130FD07F6
:1019F20001300310FD0CFC0CFB0CFA0CFF3E031D26
:101A0200FA2CFF307D05031D072D082DE72C142D20
:101A12000130F9020130F4000310FA0DFB0DFC0D48
:101A2200FD0DF40B0D2DFC1B172D182D1E2D023054
:101A3200790203181D2D1E2D092D7918212D222D15
:101A42002A2DFF30FA05FF30FB057F30FC05FF3001
:101A5200FD050310F90C7908F400F501F601F70110
:101A620018300310F40DF50DF60DF70DFF3E031DB2
:101A7200322D7408FA047508FB047608FC04770812
:101A8200FD0478080319462D472D4C2DF31F4A2DCE
:101A92004B2D4C2DFD177D08F3007C08F2007B08CE
:101AA200F1007A08F0000800B330840083160313B3
:101AB200260883138000840A27088000840A2808E5
:101AC2008000840A29088000840A2A0880000030E5
:101AD2003406031D6E2D05303306031D712D722D44
:101AE200742D8501A32D00303406031D7A2D063096
:101AF2003306031D7D2D7E2D802D8601A32D003002
:101B02003406031D862D07303306031D892D8A2DC9
:101B12008C2D8701A32D00303406031D922D083031
:101B22003306031D952D962D982D8801A32D003087
:101B32003406031D9E2D09303306031DA12DA22D4F
:101B42001A2E8901343083160313AC00F130AB0036
:101B5200AB0BA92DAC0BA92D03300A128A15BD229D
:101B62000A128A150D3083160313AC00FB30AB004A
:101B7200AB0BB92DAC0BB92D03300A128A15BD225D
:101B82000A128A152A3083160313AC008D30AB007B
:101B9200AB0BC92DAC0BC92D03300A128A15BD221D
:101BA2000A128A1502300A128A15BD220A128A15F1
:101BB20002300A128A15BD220A128A1508300A1248
:101BC2008A15BD220A128A1500300A128A15BD2210
:101BD2000A128A1506300A128A15BD220A128A15BD
:101BE200083083160313AD002D152D08AB00043009
:101BF2000310AB0CFF3E031DF92D2B080F390A12FF
:101C02008A15BD220A128A15831603132D080F396D
:101C12000A128A15BD220A128A1500300A128A1582
:101C2200BD220A128A1501300A128A15BD220A1231
:101C32008A15080083160313A200221C212E222ECD
:101C4200372E0130A00036080739013E2A2E031034
:101C5200A00DFF3E031D282E2008FF00330884003C
:101C62008317341C83137F0880044C2E0130A0009C
:101C720036080739013E3F2E0310A00DFF3E031D1B
:101C82003D2E2008FF3AFF00330884008317341CDE
:101C920083137F088005A21C4F2E502E682E013020
:101CA200A000360CA100A10C210C0739013E5B2ECD
:101CB2000310A00DFF3E031D592E2008FF0033081C
:101CC20084008317341C83137F088004802E013024
:101CD200A000360CA100A10C210C0739013E732E85
:101CE2000310A00DFF3E031D712E2008FF3AFF00D6
:101CF200330884008317341C83137F088005221D58
:101D0200832E842E992E0130A00037080739013E18
:101D12008C2E0310A00DFF3E031D8A2E2008FF000B
:101D2200330884008317341C83137F088004AE2E8B
:101D32000130A00037080739013EA12E0310A00D83
:101D4200FF3E031D9F2E2008FF3AFF003308840048
:101D52008317341C83137F088005A21DB12EB22E77
:101D6200CA2E0130A000370CA100A10C210C0739AA
:101D7200013EBD2E0310A00DFF3E031DBB2E200809
:101D8200FF00330884008317341C83137F08800408
:101D9200E22E0130A000370CA100A10C210C073962
:101DA200013ED52E0310A00DFF3E031DD32E2008A9
:101DB200FF3AFF00330884008317341C83137F0823
:101DC200800508000B1CE62EE72E472F01308316F4
:101DD2000313B8000030B90083120313861FF22EDA
:101DE200F32E042F6330680669040319F92EFA2EC4
:101DF200042F0130E8070318E90A0030E9078316C7
:101E02000313BC01BD018312061F082F092F222FC5
:101E1200013083160313B8000030B9000530831275
:101E22000313680669040319172F182F222FFF3096
:101E3200E8070318E90AFF30E90783160313BC0118
:101E4200BD018312861E262F272F3C2F01308316B9
:101E52000313B8000030B900031083120313071CE8
:101E620003140318352F392F8312031307143C2F41
:101E7200831203130710061E3F2F402F462F0130F7
:101E820083160313B8000030B9000B100B1D4A2F44
:101E92004B2FF62F01308312E6070318E70A0030B2
:101EA200E7070130E4070318E50A0030E50732309E
:101EB20066066704031D5E2F5F2FE42FE601E7012C
:101EC20000300A128A11C1270A128A157108831278
:101ED2000313E3007008E2006208F0006308F100F7
:101EE2000030F11BFF30F200F30001300A128A15B4
:101EF2009D240A128A15730883120313A70072081D
:101F0200A6007108A5007008A4004430A300803028
:101F1200A2000030A1000030A0000A128A11F225AE
:101F22000A128A15831203132308C1002208C00073
:101F32002108BF002008BE004230BD00C830BC00EE
:101F42000030BB000030BA000A128A1141200A1286
:101F52008A15831203133D08D7003C08D6003B08BC
:101F6200D5003A08D4000A128A1583230A128A1568
:101F7200831203135508E3005408E2006308803A11
:101F8200DE006908803A5E02031DC92F68086202FA
:101F92000318CC2FCD2FD12F831203130714E42F54
:101FA200831203136908803ADE006308803A5E02F6
:101FB200031DDD2F620868020318E02FE12FE42FD2
:101FC200831203130710F430831203136406031DF4
:101FD200EE2F6503031DEE2FEF2FF52FE401E50130
:101FE20083160313B801B9010B1183126108FF00B4
:0E1FF20060088A005F0E8300FE0E7E0E09005E
:02400E00393F38
:00000001FF
